:100000000C948A0A0C94A70A0C94A70A0C94A70AC9
:100010000C94A70A0C94A70A0C94A70A0C94A70A9C
:100020000C94A70A0C94A70A0C94A70A0C94A70A8C
:100030000C94A70A0C94A70A0C94A70A0C94A70A7C
:100040000C94A70A0C94A70A0C94A70A0C94A70A6C
:100050000C94A70A0C94A70A0C94A70A0C94A70A5C
:100060000C94A70A0C94A70A0C102060070000004B
:100070000000000000000000000000000000000080
:100080000000000000080000000000007C00FF33BA
:10009000FF33FF337C000000000000000000090077
:1000A0000000003C003C003C0000003C003C003CE8
:1000B000000000000000000C0002101E901FF01F46
:1000C000FE037E1E9E1FF01FFE037E021E00100018
:1000D0000A00007804FC0CFC0CFF3FFF3FFF3FCC04
:1000E0000FCC0F8807000000000C00303838383C77
:1000F000381E380F8007C003E039F03878383C38B4
:100100001C000B0000001FB83FFC3FFE31E637FE2D
:100110003F3E1E1C3E00360022000007000000008B
:10012000000027003F003F001F000000000000000B
:10013000000000000900000000F003FC0FFE1FFF9C
:100140003F073801200120000000000000090000E6
:100150000000012001200738FF3FFE1FFC0FF003C5
:100160000000000000000A0000980CB80EF80FF81C
:100170000FF80FF80FF80FB80E980C000000000AE7
:100180000000800180018001F00FF00FF00F80016E
:100190008001800100000000070000000000000056
:1001A000B800F800F800780000000000000000002F
:1001B000000A00008001800180018001800180012F
:1001C00080018001800100000000070000000000A5
:1001D000000038003800380038000000000000003F
:1001E0000000000C0018001C001E000F8007C00358
:1001F000E001F00078003C001E000E000CF807FE45
:100200001FFE1F073F8333C331E33073303F38FE97
:100210001FFE1FF8070B000000000C300C300E30E2
:10022000FF3FFF3FFF3F00300030003000000C1C5C
:10023000301E381F3C073E033F8337C333E331F79B
:10024000307F303E301C300C0C0C0E1C0F3CC7387D
:10025000C330C330C330C330E739FF3F7E1F3C0E8D
:100260000CC003E003F00378033C031E030F03FFFD
:100270003FFF3FFF3F000300030C3F0C7F1C7F3C10
:1002800063386330633063306330E338E33FC31F68
:10029000830F0CC00FF01FF83FFC39DE30CF30C7A2
:1002A00030C330C339C33F801F000F0C030003006D
:1002B00003000330033C033FC30FF303FF003F0081
:1002C0000F0003000C000FBC1FFE3FFF39E730C3D7
:1002D00030C330E730FF39FE3FBC1F000F0C3C003D
:1002E0007E00FF30E730C330C338C33CC31EE70F86
:1002F000FF07FE03FC0007000000000000701C70F8
:100300001C701C701C0000000000000000000007B2
:10031000000000000000709C70FC70FC707C00000D
:1003200000000000000000000A0000C000E001F032
:1003300003F8073C0F1E1E0F3C0738033000000077
:10034000000B00006006600660066006600660063E
:10035000600660066006600600000A0000033007C1
:10036000380F3C1E1E3C0FF807F003E001C00000F0
:100370000000000B1C001E001F0007008337C3375E
:10038000E337F7007F003E001C0000000CF80FFE72
:100390001FFF1FF73BFB37FB37FB37FB37FF37FFF1
:1003A00037FE03F8010B0038003FE03FFC07FF0673
:1003B0001F06FF06FC07E03F003F003800000BFF70
:1003C0003FFF3FFF3FC330C330C330E730FF39FE4C
:1003D0003FBC1F000F00000BF003FC0FFE1F0F3C83
:1003E00007380330033007380F3C0E1C0C0C00009C
:1003F0000BFF3FFF3FFF3F03300330033007380F51
:100400003CFE1FFC0FF00300000BFF3FFF3FFF3FD0
:10041000C330C330C330C330C330C33003300330C4
:1004200000000BFF3FFF3FFF3FC300C300C300C3FB
:1004300000C300C3000300030000000BF003FC0F27
:10044000FE1F0F3C0738C330C330C330C73FC73F20
:10045000C63F00000BFF3FFF3FFF3FC000C000C092
:1004600000C000C000FF3FFF3FFF3F000009000049
:10047000000003300330FF3FFF3FFF3F03300330F6
:100480000000000000000B000E001E003E003800BF
:1004900030003000300038FF3FFF1FFF0700000B27
:1004A000FF3FFF3FFF3FE001F003F8073C0F1E1E38
:1004B0000F3C0738033000000BFF3FFF3FFF3F00BA
:1004C00030003000300030003000300030003000AC
:1004D000000BFF3FFF3FFF3F7E00F801E001F80106
:1004E0007E00FF3FFF3FFF3F00000BFF3FFF3FFF4E
:1004F0003F3E00F800F003C007001FFF3FFF3FFF33
:100500003F00000BF003FC0FFE1F0F3C07380330C9
:1005100007380F3CFE1FFC0FF00300000BFF3FFFEE
:100520003FFF3F8301830183018301C701FF01FE78
:10053000007C0000000BF003FC0FFE1F0F3C07388F
:100540000336073E0F3EFE3FFC3FF03300000BFF3B
:100550003FFF3FFF3F830183038307830FC71FFFD5
:100560003DFE387C3000000B3C0C7E1CFF3CE73825
:10057000C330C330C330C739CF3F8E1F0C0F0000CC
:100580000A0000030003000300FF3FFF3FFF3F039B
:100590000003000300000000000BFF07FF1FFF3FE8
:1005A00000380030003000300038FF3FFF1FFF07E9
:1005B00000000B07003F00FF01F80FC03F003EC0E6
:1005C0003FF80FFF013F00070000000BFF3FFF3F18
:1005D000FF3F001E800780038007001EFF3FFF3F94
:1005E000FF3F00000B03300F3C1F3E3C0FF003E0C9
:1005F00001F0033C0F1F3E0F3C033000000B0300D3
:100600000F003F00FC00F03FC03FF03FFC003F0008
:100610000F00030000000B0330033C033E033FC305
:1006200033E331F3303F301F300F30033000000927
:1006300000000000FF3FFF3FFF3F03300330033067
:1006400003300000000000000C0E001E003C00788B
:1006500000F000E001C0038007000F001E001C0036
:100660001809000000000330033003300330FF3F5F
:10067000FF3FFF3F0000000000000C6000700078AA
:10068000003C001E000F000F001E003C00780070B0
:100690000060000C00C000C000C000C000C000C06E
:1006A00000C000C000C000C000C000C008000000C2
:1006B00000000000003E007E007E004E00000000B2
:1006C00000000000000B001C403E603F60336033C0
:1006D000603360336033E03FE03FC03F00000BFF1A
:1006E0003FFF3FFF3FE030603060306030E038E097
:1006F0003FC01F800F00000B800FC01FE03FE0389D
:100700006030603060306030E038C0188008000031
:100710000B800FC01FE03FE03860306030E030E019
:1007200030FF3FFF3FFF3F00000B800FC01FE03F47
:10073000E03B6033603360336033E033C0138001EB
:10074000000009C000C000FC3FFE3FFF3FC700C3E0
:1007500000C30003000000000000000B8003C0C7BE
:10076000E0CFE0CE60CC60CC60CC60EEE0FFE07F1C
:10077000E03F00000AFF3FFF3FFF3FE000600060F6
:1007800000E000E03FC03F803F00000000090000A3
:10079000000000306030EC3FEC3FEC3F00300030B8
:1007A0000000000000000900000000006000E00000
:1007B000E060C0ECFFECFFEC7F0000000000000AEE
:1007C0000000FF3FFF3FFF3F8007C00FE01FE03CFE
:1007D0006038003000000000090000000000300315
:1007E00030FF3FFF3FFF3F003000300000000000BF
:1007F000000BE03FE03FE03FE000E03FC03FE03F74
:10080000E000E03FC03F803F00000B0000E03FE021
:100810003FE03F600060006000E000E03FC03F80DC
:100820003F00000B800FC01FE03FE03860306030B9
:100830006030E038E03FC01F800F00000BE0FFE0B9
:10084000FFE0FF601C601860186018E01CE01FC02B
:100850000F800700000B8007C00FE01FE01C60182E
:1008600060186018601CE0FFE0FFE0FF00000B0074
:1008700000E03FE03FE03FE000600060006000E03B
:1008800000E000C000000009C011E033E033603335
:1008900060336033603F603F401E00000000000096
:1008A0000960006000FE1FFE3FFE3F603060306068
:1008B0003000300000000000000BE00FE01FE03FC0
:1008C00000380030003000300038E03FE03FE03FCB
:1008D00000000B6000E001E007801F003E003800D0
:1008E0003E801FE007E001600000000BE007E01F12
:1008F000E03F003CE01FE00FE01F003CE03FE01F56
:10090000E00700000A6030E038E03DC01F800F8043
:100910000FC01FE03DE0386030000000000A00001A
:100920006000E081E0E780FF007E801FE007E001DB
:100930006000000000000A60306038603C603E608B
:1009400037E033E031E03060302030000000000A52
:1009500000008000C001FC1FFE3F7F7F0770036026
:1009600003600360000000000700000000000000BA
:1009700000FF3FFF3FFF3F000000000000000000BD
:10098000000A000003600360036007707F7FFE3F82
:10099000FC1FC0018000000000000B100018001CAC
:1009A000000C000C001C00180018001C000C0004B7
:1009B0000000000B000F800FC00FE00C700C300C1B
:1009C000700CE00CC00F800F000F00000B102060B7
:1009D0000600000000000000000000000000000011
:1009E00000000000000000070000000000007C0084
:1009F000FF33FF337C00000000000000000008000F
:100A00000000003C003C00000000003C003C0000F6
:100A100000000000000B0002101E901FF0037E0279
:100A20001E1E901FF0037E021E00100009000078B9
:100A300004FC0CCC0CFF3FFF3FCC0CCC0F88070014
:100A40000000000B00303838381C380E00078003D7
:100A5000C001E038703838381C000A0000001FB8A8
:100A60003FFC31C621E2373E1E1C1C00360022002E
:100A7000000600000000000027003F001F000000EB
:100A800000000000000000000800000000F003FC6F
:100A90000FFE1F07380120012000000000000008A1
:100AA00000000000012001200738FE1FFC0FF003AA
:100AB000000000000000090000980CB80EE003F8E8
:100AC0000FF80FE003B80E980C00000000090000BA
:100AD000800180018001F00FF00F80018001800112
:100AE000000000000600000000000000B800F80050
:100AF00078000000000000000000000900008001F4
:100B0000800180018001800180018001800100005E
:100B10000000060000000000000038003800380027
:100B20000000000000000000000B0018001C000E78
:100B300000078003C001E000700038001C000E00B8
:100B40000BF807FE1F061E03338331C330633033B7
:100B5000301E18FE1FF8070A000000000C300C3091
:100B60000E30FF3FFF3F00300030003000000B1C14
:100B7000301E38073C033E03378333C331E33077FD
:100B8000303E301C300B0C0C0E1C0738C330C33009
:100B9000C330C330C330E7397E1F3C0E0BC003E0C7
:100BA00003700338031C030E030703FF3FFF3F00DE
:100BB0000300030B3F0C7F1C6338633063306330EA
:100BC00063306330E338C31F830F0BC00FF01FF88F
:100BD00039DC30CE30C730C330C330C339801F005A
:100BE0000F0B0300030003000330033C030FC30398
:100BF000F3003F000F0003000B000FBC1FFE39E79E
:100C000030C330C330C330E730FE39BC1F000F0B98
:100C10003C007E00E730C330C330C338C31CC30E72
:100C2000E707FE03FC0006000000000000701C70D7
:100C30001C701C0000000000000000000006000006
:100C400000000000709C70FC707C00000000000040
:100C500000000000090000C000E001F00338071C9C
:100C60000E0E1C07380330000000000A000060066A
:100C70006006600660066006600660066006600644
:100C80000000090000033007380E1C1C0E3807F066
:100C900003E001C000000000000A1C001E00070065
:100CA00003008337C337E30077003E001C000000D9
:100CB0000BF80FFE1F0718F333FB371B36FB37FB10
:100CC000370736FE03F8010A0038003FE007FC064C
:100CD0001F061F06FC06E007003F003800000AFF61
:100CE0003FFF3FC330C330C330C330E730FE39BCB1
:100CF0001F000F00000AF003FC0F0E1C0738033022
:100D00000330033007380E1C0C0C00000AFF3FFFB5
:100D10003F033003300330033007380E1CFC0FF064
:100D20000300000AFF3FFF3FC330C330C330C3306E
:100D3000C330C3300330033000000AFF3FFF3FC31E
:100D400000C300C300C300C300C3000300030000CE
:100D5000000AF003FC0F0E1C07380330C330C33009
:100D6000C330C73FC63F00000AFF3FFF3FC000C07F
:100D700000C000C000C000C000FF3FFF3F000008EF
:100D80000000000003300330FF3FFF3F033003301B
:100D90000000000000000A000E001E0038003000B5
:100DA00030003000300038FF1FFF0700000AFF3F0F
:100DB000FF3FC000E001F00338071C0E0E1C07388F
:100DC000033000000AFF3FFF3F00300030003000DA
:100DD00030003000300030003000000AFF3FFF3F9D
:100DE0001E007800E001E00178001E00FF3FFF3F99
:100DF00000000AFF3FFF3F0E003800F000C0030074
:100E000007001CFF3FFF3F00000AF003FC0F0E1C11
:100E100007380330033007380E1CFC0FF0030000C6
:100E20000AFF3FFF3F83018301830183018301C7E1
:100E300001FE007C0000000AF003FC0F0E1C0738C6
:100E400003300336073E0E1CFC3FF03300000AFF60
:100E50003FFF3F8301830183038307830FC71DFE89
:100E6000387C3000000A3C0C7E1CE738C330C330AD
:100E7000C330C330C7398E1F0C0F000009000003B8
:100E80000003000300FF3FFF3F03000300030000D7
:100E90000000000AFF07FF1F00380030003000305C
:100EA00000300038FF1FFF0700000A07003F00F86E
:100EB00001C00F003E003EC00FF8013F00070000D8
:100EC000000AFF3FFF3F001C00068003800300066E
:100ED000001CFF3FFF3F00000A03300F3C1C0E3098
:100EE00003E001E00130031C0E0F3C033000000A58
:100EF00003000F003C00F000C03FC03FF0003C008A
:100F00000F00030000000A0330033C033E0333C319
:100F100031E33033301F300F300330000008000061
:100F20000000FF3FFF3F0330033003300330000079
:100F3000000000000B0E001C0038007000E000C034
:100F40000180030007000E001C00180800000000CC
:100F50000330033003300330FF3FFF3F0000000049
:100F600000000B6000700038001C000E0007000E2F
:100F7000001C003800700060000B00C000C000C002
:100F800000C000C000C000C000C000C000C000C061
:100F90000700000000000000003E007E004E000040
:100FA000000000000000000A001C403E6033603377
:100FB0006033603360336033E03FC03F00000AFFBE
:100FC0003FFF3FC0306030603060306030E038C09C
:100FD0001F800F00000A800FC01FE03860306030B3
:100FE000603060306030C018800800000A800FC098
:100FF0001FE038603060306030E030C030FF3FFFCD
:101000003F00000A800FC01FE03B60336033603355
:1010100060336033C0138001000008C000C000FCD2
:101020003FFE3FC700C300C30003000000000000F4
:10103000000A8003C0C7E0CE60CC60CC60CC60CC3E
:1010400060E6E07FE03F000009FF3FFF3FC0006037
:101050000060006000E000C03F803F00000000082A
:101060000000000000306030EC3FEC3F003000300A
:101070000000000000000800000000006000E00028
:10108000C060C0ECFFEC7F00000000000009000021
:10109000FF3FFF3F00038007C00FE01C60380030B7
:1010A00000000000080000000000300330FF3FFF98
:1010B0003F003000300000000000000AE03FC03F69
:1010C000E000E000C03FC03FE000E000C03F803FE4
:1010D00000000A0000E03FE03F6000600060006048
:1010E00000E000C03F803F00000A800FC01FE038D2
:1010F0006030603060306030E038C01F800F00002A
:101100000AE0FFE0FF600C6018601860186018E0EB
:101110001CC00F800700000A8007C00FE01C601889
:10112000601860186018600CE0FFE0FF00000A0023
:1011300000E03FE03FC0006000600060006000E051
:1011400000C000000008C011E0336033603360333A
:101150006033603F401E0000000000000860006037
:1011600000FE1FFE3F603060306030003000000045
:101170000000000AE00FE01F0038003000300030AF
:1011800000300018E03FE03F00000A6000E001800E
:1011900007001E00380038001E8007E001600000D4
:1011A000000AE007E01F0038001CE00FE00F001C01
:1011B0000038E01FE0070000096030E038C01D8003
:1011C0000F0007800FC01DE03860300000000009EC
:1011D00000006000E08180E7007E001E8007E001E3
:1011E0006000000000000960306038603C603660DC
:1011F00033E031E0306030203000000000090000B2
:101200008000C001FC1F7E3F077003600360036025
:1012100000000000060000000000000000FF3FFF8B
:101220003F00000000000000000000090000036013
:101230000360036007707E3FFC1FC0018000000058
:1012400000000A100018000C0004000C0018001028
:101250000018000C00040000000A000F800FC00CF2
:10126000600C300C300C600CC00C800F000F0000C4
:101270000608206004000000000000050000065F72
:101280000600060007030007030600247E247E24D0
:101290000500242B6A12000600631308646306002D
:1012A0003649562050040000070300000400003EA9
:1012B000410000040000413E00000600083E1C3EC4
:1012C00008060008083E0808040000E06000000668
:1012D00000080808080804000060600000060020FC
:1012E0001008040206003E5149453E050000427FB9
:1012F00040000600625149494606002249494936E4
:1013000006001814127F1006002F494949310600C3
:101310003C4A494930060001710905030600364977
:101320004949360600064949291E0400006C6C0034
:1013300000040000EC6C00000500081422410006C7
:10134000002424242424060000412214080600025C
:101350000159090606003E415D551E06007E111129
:10136000117E06007F4949493606003E414141222F
:1013700006007F4141413E06007F49494941060040
:101380007F0909090106003E4149497A06007F08A4
:1013900008087F050000417F4100060030404040C2
:1013A0003F06007F0814224106007F40404040066F
:1013B000007F0204027F06007F0204087F06003ED1
:1013C0004141413E06007F0909090606003E4151A0
:1013D000215E06007F09091966060026494949323F
:1013E000060001017F010106003F4040403F06002A
:1013F0001F2040201F06003F403C403F0600631472
:101400000814630600070870080705007149454382
:10141000000500007F41410006000204081020057D
:10142000000041417F0006000402010204068080A2
:1014300080808080040000030700000600205454D0
:10144000547806007F444444380600384444442815
:101450000600384444447F060038545454080500BC
:10146000087E090900060018A4A4A47C05007F04D6
:10147000047800050000007D400005004080847D68
:101480000005007F10284400050000007F40000692
:10149000007C0418047805007C04047800060038F9
:1014A000444444380600FC4444443806003844446C
:1014B00044FC0600447844040806000854545420B0
:1014C0000500043E44240005003C40207C0006004A
:1014D0001C2040201C06003C6030603C05006C1065
:1014E000106C0005009CA0603C0005006454544C46
:1014F000000500083E41410004000000770000069E
:10150000000041413E080500020102010006003CC6
:101510002623263C11241FBECFEFD8E0DEBFCDBF6F
:1015200012E0A0E0B1E0EAE4F3E302C005900D921E
:10153000AE38B107D9F722E0AEE8B2E001C01D92A3
:10154000AD3BB207E1F70E9472180C94A3190C94FA
:10155000000085B1886085B98FE99FE00197F1F7B8
:1015600000C0000085B1877F85B90895CF93C82F4B
:1015700085B18B7F85B90E94A90A85B1846185B93F
:101580000E94A90AC1FF04C085B1806185B903C06A
:1015900085B18F7E85B90E94A90AC0FF04C085B1BC
:1015A000806185B903C085B18F7E85B90E94A90A83
:1015B000CF9108951F93CF93DF93182FC0E0D0E011
:1015C0000DC0112324F485B1806185B903C085B1B4
:1015D0008F7E85B90E94A90A110F2196CB30D105C3
:1015E00084F3DF91CF911F91089580E00E94B60AA5
:1015F00080EC0E94DA0A85B18B7F85B9089584B1A9
:101600008C6184B90E94F50A08951F93CF93DF93EC
:10161000C82F82E00E94B60A8C2F0E94DA0A0E942C
:10162000A90AC0E010E0D0E806C01D991D0FD695AC
:101630000E94A90ACF5FC830C0F385B18B7F85B9FE
:10164000812FDF91CF911F910895CF93DF93C82F02
:10165000D62F81E00E94B60A8C2F0E94DA0AC0E8D9
:101660000DC08C2F8D2321F085B1806185B903C019
:1016700085B18F7E85B90E94A90AC695C111F1CFA7
:1016800085B18B7F85B9DF91CF9108950F931F931B
:10169000CF93DF9300E010E027C0C80182959295B8
:1016A000907F9827807F982713FD079695958795BB
:1016B0009595879595958795F801EE0FFF1FE25751
:1016C000FD4FEC0FFD1F60818C0F0E94250B85E004
:1016D0008A95F1F70000219602C0C0E0D0E0C23048
:1016E000D105DCF20F5F1F4F00311105B4F3DF911C
:1016F000CF911F910F9108950F931F93CF93DF9375
:1017000000E010E023C0C80182959295907F982751
:10171000807F982713FD07969595879595958795D2
:10172000959587958C0F0E94050BF801EE0FFF1F12
:10173000E257FD4FEC0FFD1F8083219602C0C0E0F1
:10174000D0E0C230D105FCF20F5F1F4F0031110510
:10175000B4F3DF91CF911F910F910895EF92FF9213
:101760000F931F93CF93DF93CDB7DEB760970FB67C
:10177000F894DEBF0FBECDBF20E030E00DC0F90110
:10178000EE0FFF1F01E010E00C0F1D1FE00FF11F17
:10179000118210822F5F3F4F2830310584F31816D5
:1017A00019060CF082C07C0111E0E11AF108F70182
:1017B000EE0FFF1FE257FD4FE60FF71FE081F0E04D
:1017C00020E830E0042E02C0359527950A94E2F710
:1017D0002E233F2307E010E0041B150B02C03595B4
:1017E00027950A95E2F73C832B8314161506C4F45B
:1017F0008A010150110920E830E002C03595279593
:101800000A95E2F72E233F2308E010E0041B150B96
:1018100002C0359527950A95E2F73A83298315C0CA
:101820001616170684F49701220F331F22573D4FD7
:101830008B0101501109200F311FD9012C9121700A
:1018400029831A8202C01A82198247305105BCF4DA
:10185000DA01119620E830E002C035952795AA9567
:10186000E2F7E223F32326E030E0241B350B02C02D
:10187000F595E7952A95E2F7FE83ED831CC06F305E
:10188000710584F4D701AA0FBB1FA257BD4F9B015E
:101890002F5F3F4FA20FB31F2C91207830E03E8383
:1018A0002D8309C01E821D8206C01A8219821C82E5
:1018B0001B821E821D828F3091050CF083C07C013B
:1018C000BFEFEB1AFB0AF701EE0FFF1FE257FD4FC8
:1018D000E60FF71FE081F0E020E830E0042E02C0C0
:1018E000359527950A94E2F72E233F2307E010E071
:1018F000041B150B02C0359527950A95E2F73C8726
:101900002B8714161506C4F48A010150110920E82A
:1019100030E002C0359527950A95E2F72E233F2344
:1019200008E010E0041B150B02C0359527950A95B9
:10193000E2F73E872D8716C0161617068CF497011E
:10194000220F331F890102571D4F9B01215031097E
:10195000200F311FD9012C9121702D871E8602C0C6
:101960001E861D8647305105BCF4DA01119620E829
:1019700030E002C035952795AA95E2F7E223F323DC
:1019800026E030E0241B350B02C0F595E7952A953B
:10199000E2F7FA87E9871CC06F30710584F4D7013C
:1019A000AA0FBB1FA257BD4F9B012F5F3F4FA20F36
:1019B000B31F2C91207830E03A87298709C01A8616
:1019C000198606C01A8619861C861B861E861D86E9
:1019D0001416150614F5FC01EE0FFF1FE257FD4F1C
:1019E000E60FF71FA081FA01319720E830E0890166
:1019F00002C015950795EA95E2F72A2F30E02023DB
:101A00003123E8E0F0E0E41BF50B02C035952795A3
:101A1000EA95E2F7388B2F8714C0161617067CF468
:101A2000FC01EE0FFF1FE257FD4F9B0121503109D2
:101A3000E20FF31F208121702F87188A02C0188AB5
:101A40001F864730510514F5FC01EE0FFF1FE257CA
:101A5000FD4FE60FF71FA081FA01319620E830E034
:101A6000890102C015950795EA95E2F72A2F30E023
:101A700020233123E6E0F0E0E41BF50B02C03595AE
:101A80002795EA95E2F738872F8315C06F307105E7
:101A900084F4FC01EE0FFF1FE257FD4F9B012F5F07
:101AA0003F4FE20FF31F2081207830E038872F83EB
:101AB00002C018861F82880F991F82579D4FFC0114
:101AC000E60FF71F208160E870E0CB01042E02C012
:101AD000959587950A94E2F7622F70E06823792341
:101AE00087E090E0841B950B02C0759567958A95F9
:101AF000E2F780E090E040E050E010C0FC01EE0F23
:101B0000FF1F21E030E02C0F3D1FE20FF31F20816B
:101B10003181232B11F04F5F5F4F01968830910583
:101B20006CF381E090E09A012250310922303105B6
:101B300010F480E090E086239723892B71F491E0E4
:101B40004330510509F090E081E0672B09F080E017
:101B5000892331F481E090E005C083E090E002C089
:101B600082E090E060960FB6F894DEBF0FBECDBF66
:101B7000DF91CF911F910F91FF90EF900895CF9239
:101B8000DF92EF92FF920F931F93CF93DF93CDB726
:101B9000DEB7A0970FB6F894DEBF0FBECDBF40E012
:101BA00050E01DC0CA01880F991FFC01E257FD4F8C
:101BB000E20FF31F6081E1E0F0E0EC0FFD1F8E0FFC
:101BC0009F1FFC01E20FF31F60832F5F3F4F02C096
:101BD00020E030E0223031052CF34F5F5F4F403181
:101BE0005105B4F3C12CD12C4EC0A801B701C601D8
:101BF0000E94AE0B8230910519F00397C1F02DC001
:101C0000F601EE0FFF1F81E090E08C0F9D1FE80FA3
:101C1000F91FEE0DFF1D208180E890E0002E02C02C
:101C2000959587950A94E2F7822B808316C0F6017A
:101C3000EE0FFF1F81E090E08C0F9D1FE80FF91F52
:101C4000EE0DFF1D208180E890E0002E02C09595EA
:101C500087950A94E2F7822780830F5F1F4F02C0A7
:101C600000E010E0083011050CF4BFCF9FEFE91A37
:101C7000F90A02C0E12CF12CE2E0EE16F10484F343
:101C8000FFEFCF1ADF0A80E1C816D1049CF340E0D1
:101C900050E01CC0CA01880F991FE1E0F0E0EC0F92
:101CA000FD1FE80FF91FE20FF31F608182579D4F60
:101CB000FC01E20FF31F60832F5F3F4F02C020E063
:101CC00030E02230310534F34F5F5F4F4031510532
:101CD000B4F3A0960FB6F894DEBF0FBECDBFDF9170
:101CE000CF911F910F91FF90EF90DF90CF900895CB
:101CF000AF92BF92CF92DF92EF92FF920F931F931A
:101D0000CF93DF937C01EB016A015901012B29F488
:101D1000232BC1F00FEF1FEF1DC00E94AE0B8230CE
:101D2000910599F08330910551F0019719F000E089
:101D300010E010C0AB2861F400E010E00BC000E040
:101D400018EF08C000E010E005C000EE17E002C088
:101D500006E61EE9AE01440F551F440F551F440F00
:101D6000551F4C0D5D1DB701660F771FEE0CFF1C54
:101D7000EE0CFF1CEE0CFF1C6E0D7F1D9B012E5EFA
:101D80003F4FCA01880F991F440F551F440F551F1D
:101D9000440F551F840F951FAC014E5E5F4F685F67
:101DA0007F4F08960E941B14DF91CF911F910F91D6
:101DB000FF90EF90DF90CF90BF90AF900895AF92DB
:101DC000BF92CF92DF92EF92FF920F931F93CF9328
:101DD000DF936C01E12CF12C31C0F701EE0FFF1FF6
:101DE000E257FD4FEC0FFD1F80818A2151F04B2DF2
:101DF00050E0860121E030E0BE01C7010E94780E6C
:101E000009C04B2D50E0860120E030E0BE01C70143
:101E10000E94780EA694B39404C0B12C6894AA24AE
:101E2000A7F887E08B15C8F6219602C0C0E0D0E085
:101E3000C230D10594F38FEFE81AF80A80E1E81672
:101E4000F104A4F3DF91CF911F910F91FF90EF90D8
:101E5000DF90CF90BF90AF900895AF92BF92CF9296
:101E6000DF92EF92FF920F931F93CF93DF937C014A
:101E7000A12CB12C29C00E94301964E670E00E94A8
:101E8000D0188E159F050CF4010F1695219604C0ED
:101E9000C0E0D0E000E010E8C830D10564F3F501FF
:101EA000EE0FFF1FE257FD4FEC0DFD1D00838FEF7E
:101EB000C81AD80A02C0C12CD12C82E0C816D1049D
:101EC0003CF38FEFA81AB80A80E1A816B1049CF37E
:101ED000DF91CF911F910F91FF90EF90DF90CF9006
:101EE000BF90AF9008950F931F930FEF1FEF29EA54
:101EF00030E049EA50E067E070E087E090E00E945F
:101F000070151F910F9108950F931F930E94531402
:101F10000FEF1FEF23ED30E047EA50E067E070E09D
:101F200087E090E00E94701560E070E088E690E045
:101F30000E94A7152CE030E044E051E06EE170E033
:101F400084E190E00E94411860E070E080E792E157
:101F50000E94A71500E21DEF2AE030E041E151E0C8
:101F60006CE370E082E390E00E9441180FEF1FEFF6
:101F700023E130E04CE151E06AE570E084E190E07B
:101F80000E94411820E130E040E351E06EE670E04D
:101F90008EE190E00E9441182BE030E041E451E0F6
:101FA00068E770E08BE490E00E94411823E130E0A4
:101FB0004DE451E06CE870E08EE190E00E94411841
:101FC00021E130E041E651E066E970E083E290E033
:101FD0000E94411800E21DEF22E130E043E751E0AA
:101FE00069EB70E080E290E00E9441181F910F9130
:101FF00008950F931F930E9453140FEF1FEF23EDCB
:1020000030E047EA50E067E070E087E090E00E944F
:10201000701560E070E08CEC99E00E94A71529E053
:1020200030E046E851E06EE170E084E190E00E942B
:10203000411860E070E080E792E10E94A71500E29D
:102040001DEF26E130E040E951E062E370E084E119
:1020500090E00E94411824E130E047EA51E06CE34F
:1020600070E084E190E00E9441180FEF1FEF28E03C
:1020700030E04CEB51E06AE570E084E190E00E94D2
:1020800041182CE030E045EC51E06EE670E08EE166
:1020900090E00E94411820E130E042ED51E068E715
:1020A00070E088E290E00E9441182CE030E043EEBE
:1020B00051E067E870E08EE190E00E94411820E175
:1020C00030E040EF51E061E970E088E290E00E948A
:1020D000411800E21DEF2FE030E041E052E069EBF3
:1020E00070E088E290E00E94411880E004C00E9405
:1020F000EA11843439F09FEC980F9930C0F790E0E2
:10210000C09702C080E090E01F910F9108950F9357
:102110001F930E9453140FEF1FEF23ED30E047EAA7
:1021200050E067E070E087E090E00E94701560E0AA
:1021300070E088E690E00E94A71500E21DEF2AE01B
:1021400030E041E152E068E270E084E190E00E941A
:10215000411825E030E04CE152E06CE370E088E2A9
:1021600090E00E94411860E070E080E792E10E94F8
:10217000A7150FEF1FEF2EE030E042E252E060E5DE
:1021800070E08EE190E00E9441181F910F91089538
:102190000F931F930E9453140FEF1FEF23ED30E0B6
:1021A00047EA50E067E070E087E090E00E94701539
:1021B00060E070E088E690E00E94A71500E21DEF65
:1021C0002AE030E041E352E068E270E084E190E030
:1021D0000E94411825E030E04CE152E06CE370E0F1
:1021E00088E290E00E94411860E070E080E792E1B0
:1021F0000E94A7150FEF1FEF2EE030E042E252E001
:1022000060E570E08EE190E00E9441181F910F910F
:1022100008950F931F9300E21DEF26E130E04CE399
:1022200052E064EB70E08AE090E00E9441182EE0FA
:1022300030E043E552E06EEB70E08AE090E00E940F
:1022400041181F910F9108950F931F93CF9300E0B2
:1022500010E0C0E012C00E94EA11C82F833431F4AC
:1022600081E0012B09F080E0082F10E00E94BF0DF3
:102270000E94460BC8010E94DF0EC43461F7CF9163
:102280001F910F910895CF93DF930E94F90FEC01F6
:10229000892BE9F00E948710CE01880F991FCC0F7F
:1022A000DD1FCC0FDD1FCC0FDD1F8C0F9D1F0E948B
:1022B0002D0F0E94460B0E9453140E94730F0E9420
:1022C000091180E090E00E94DF0E0E942411DF914E
:1022D000CF9108950E94C8100E947C0B0E94531455
:1022E0000E94730F0E94091180E090E00E94DF0EAF
:1022F0000E94241108950F931F930E9453140FEF0F
:102300001FEF23ED30E047EA50E067E070E087E040
:1023100090E00E94701560E070E088E690E00E9416
:10232000A71500EE1FEF2CE030E042E652E064E635
:1023300070E084E190E00E9441182FEF8BE792E972
:10234000215080409040E1F700C000001F910F91A4
:1023500008950E94EA118A3229F40E9443110E94D2
:102360007B1108958332A9F70E946A110E947B11A4
:10237000089584B1826084B984B1816084B98AB1DE
:1023800080688AB98AB180648AB98AB18F7D8AB936
:102390008AB18F7E8AB98AB1877F8AB98AB18B7FE9
:1023A0008AB98BB180628BB98BB180618BB98BB1EB
:1023B00088608BB98BB184608BB985B1826085B937
:1023C00085B1816085B98BB180688BB98BB1806430
:1023D0008BB9089550E06AC085B1826085B985B136
:1023E000816085B98BB180688BB98BB180648BB902
:1023F000513051F028F0523059F0533069F00FC08D
:1024000085B18D7F85B90BC085B18E7F85B907C039
:102410008BB18F778BB903C08BB18F7B8BB98FE377
:102420009CE90197F1F700C0000099B1292F2072B3
:1024300089B18071982F922B49B14870842F892BD4
:1024400049B14470482B89B1807290E09C01359568
:102450002795359527953595279535952795359564
:10246000279599B19071892F90E0959587959595CD
:10247000879595958795959587958223932329B17F
:10248000287030E035952795359527953595279512
:102490008223932329B1247030E035952795359513
:1024A000279582239323019721F45F5F543008F42A
:1024B00093CF543009F44FC05130C1F028F052305E
:1024C00031F15330A9F149C04C3209F448C018F435
:1024D0004C3131F00BC0443329F0483329F006C0A9
:1024E00081E3089583E3089581E408954C32C9F1AE
:1024F00018F44C3131F00BC0443329F0483329F043
:1025000006C084E3089586E3089582E408954C327A
:1025100051F118F44C3131F00BC0443329F04833F9
:1025200029F006C087E3089589E3089583E40895B8
:102530004C32D9F018F44C3131F007C0443339F043
:10254000483339F002C08AE2089580E0089583E2BA
:10255000089584E4089580E0089580E0089582E37A
:10256000089585E3089588E3089580E30895BC0104
:1025700020E030E814C0A90146235723452B21F061
:1025800098B1946098B903C098B19B7F98B998B1FD
:10259000926098B998B19D7F98B936952795211585
:1025A000310549F7089588B18F7D88B9089588B1BC
:1025B000806288B9089528B1277F28B928B12F7D76
:1025C00028B90E94B71288B1806288B9089528B1ED
:1025D000286028B928B12F7D28B90E94B71288B188
:1025E000806288B90895CF93DF93EB010E94DB12DC
:1025F000CE010E94E712DF91CF910895FC01208166
:102600003181FB0140815181FC0151834083FB01F9
:10261000318320830895FC019091B6029230A9F095
:10262000933059F19130B9F5DB012D913C9111971F
:102630008091BB029091BC02821B930B01978D93FA
:102640009C93CF010E94FE120895208131818091D8
:10265000B9029091BA02821B930B019791838083F8
:10266000FB01208131818091BB029091BC02821BD1
:10267000930B01979183808308952081318180910C
:10268000B9029091BA02821B930B019791838083C8
:10269000CF010E94FE120895CF93DF93CDB7DEB72E
:1026A00028970FB6F894DEBF0FBECDBF9A838983FB
:1026B0007C836B835E834D8338872F83BE016D5F80
:1026C0007F4FCE0101960E940B13BE01695F7F4FC1
:1026D000CE0105960E940B132D813E8189819A813E
:1026E0002817390738F4BE016B5F7F4FCE01019682
:1026F0000E94FE122F8138858B819C812817390713
:1027000038F4BE01695F7F4FCE0103960E94FE122E
:102710000E94D31268E370E183E090E00E94F3121C
:102720006D817E8186E390E00E94F31269817A8157
:1027300087E390E00E94F3126F81788588E390E050
:102740000E94F3126B817C8189E390E00E94F31276
:1027500069817A8180E290E00E94F3126B817C8132
:1027600081E290E00E94F31282E290E00E94DB128C
:102770000E94D71228960FB6F894DEBF0FBECDBFC9
:10278000DF91CF91089583708093B602813099F0E4
:1027900028F08230E9F0833041F1089580EB90E039
:1027A0009093BA028093B9028CED90E09093BC02B2
:1027B0008093BB0208958CED90E09093BA028093D1
:1027C000B90280EB90E09093BC028093BB02089525
:1027D00080EB90E09093BA028093B9028CED90E088
:1027E0009093BC028093BB0208958CED90E090938F
:1027F000BA028093B90280EB90E09093BC02809380
:10280000BB0208956FEA70E086E390E00E94F31245
:1028100060E070E087E390E00E94F3126BED70E0FF
:1028200088E390E00E94F31260E070E089E390E0BA
:102830000E94F3120895AF92BF92CF92DF92EF926F
:10284000FF920F931F93CF93DF936C015B01EA011B
:1028500079010E944C130E94D312EA18FB088FEFF3
:10286000E81AF80ACC19DD09CE010196E89EE001CC
:10287000E99ED00DF89ED00D112404C0C8010E941D
:10288000E71221972097D1F70E94D7120E940214D5
:10289000DF91CF911F910F91FF90EF90DF90CF903C
:1028A000BF90AF9008950F931F93CF93C091B6023E
:1028B00080E00E94C3132091BB023091BC022150E2
:1028C00031094091B9025091BA024150510900E0DA
:1028D00010E060E070E080E090E00E941B148C2F1C
:1028E0000E94C3138FE39CE90197F1F700C0000039
:1028F000CF911F910F9108950F931F93CF93DF9363
:1029000000D000D0CDB7DEB79A8389837C836B83F8
:102910002091B9023091BA0282179307D0F4209126
:10292000BB023091BC026217730798F48A019B01C5
:102930002F5F3F4FAC014F5F5F4F0E944C13BE01B2
:102940006D5F7F4FCE0101960E940B13C8010E945C
:10295000E7120F900F900F900F90DF91CF911F9182
:102960000F9108954F925F926F927F928F929F92F4
:10297000AF92BF92CF92DF92EF92FF920F931F938D
:10298000CF93DF93CDB7DEB728970FB6F894DEBFAD
:102990000FBECDBF9A8389837C836B835E834D8317
:1029A00038872F832801261B370B790122F4EE2468
:1029B000FF24E21AF30A8D819E8129813A81821BCC
:1029C000930B6C0122F4CC24DD24C81AD90ACE144E
:1029D000DF0474F4BE016D5F7F4FCE0101960E944B
:1029E000FE12BE01695F7F4FCE0105960E94FE1266
:1029F00029813A818D819E818217930770F4BE01EF
:102A00006B5F7F4FCE0101960E94FE12BE01695F8F
:102A10007F4FCE0103960E94FE128D819E812981F7
:102A20003A81821B930B3C014F8158852B813C815D
:102A3000BA01621B730B5B0122F4AA24BB24A61A01
:102A4000B70A8C01772014F40F5F1F4F1595079577
:102A50002417350720F488248394912C23C08824DC
:102A60008A94982C1FC0CE14DF043CF4A201BC0150
:102A70008B819C810E947C1405C06B817C81A201AA
:102A80000E947C140A191B0942F48B819C81880DD9
:102A9000991D9C838B83060D171D89819A81019650
:102AA0009A83898389819A812D813E8128173907EC
:102AB000D0F628960FB6F894DEBF0FBECDBFDF91DB
:102AC000CF911F910F91FF90EF90DF90CF90BF902B
:102AD000AF909F908F907F906F905F904F900895F0
:102AE0008F929F92AF92BF92CF92DF92EF92FF921E
:102AF0000F931F93CF93DF934C017B01EA01690190
:102B0000AC010E94B2149701AE01B701C4010E944A
:102B1000B2149601AE01B601C4010E94B21496012E
:102B2000AE01B701CE010E94B214DF91CF911F9187
:102B30000F91FF90EF90DF90CF90BF90AF909F905C
:102B40008F9008959093B8028093B7020895AEEAEB
:102B5000B2E011969C938E93FC01249112962C93D3
:102B600012973196249113962C9313973196E491F2
:102B70001496EC931497FC013396849115968C93DC
:102B80001597822F86958695869516968C9316971F
:102B900017966C93E22FE77019F08F5F8093B40261
:102BA000089587B1886087B987B1806287B987B196
:102BB000806187B987B1826087B987B1846087B93E
:102BC00088B18F7E88B988B1877F88B988B18B7FBB
:102BD00088B988B1826088B988B1806188B98FE985
:102BE0009FE00197F1F700C0000088B18F7E88B99F
:102BF0008FE39CE90197F1F700C0000088B1806184
:102C000088B99FEF20E782E0915020408040E1F7B3
:102C100000C000000E94D31260E070E080E190E00C
:102C20000E94F31260E070E081E190E00E94F312F4
:102C300060E070E082E190E00E94F31260E070E0FA
:102C400083E190E00E94F31260E070E084E190E0A4
:102C50000E94F3120E94D7129FEF23EF81E0915060
:102C600020408040E1F700C000000E94D31268E1DC
:102C700070E081E190E00E94F31261E271E682E18E
:102C800090E00E94F3126FE670E083E190E00E9412
:102C9000F3126FE579E484E190E00E94F31260E0C2
:102CA00078E080E190E00E94F3120E94D7128FE357
:102CB0009CE90197F1F700C000000E94D3126BE37A
:102CC00070E181E190E00E94F3120E94D7129FEF21
:102CD00020E782E0915020408040E1F700C00000F2
:102CE0000E94D3126CE171E081E090E00E94F31247
:102CF00060E071E082E090E00E94F31268E370E12E
:102D000083E090E00E94F31260E070E087E090E0E2
:102D10000E94F31268E078E088E090E00E94F312ED
:102D200060E071E18BE090E00E94F31260E070E0FF
:102D30008CE090E00E94F31261E07DE08FE090E093
:102D40000E94F31260E270E085E190E00E94F312CD
:102D500060E070E080E290E00E94F31260E070E0DA
:102D600081E290E00E94F31260E070E080E390E086
:102D70000E94F3126BED70E081E390E00E94F31289
:102D800060E070E082E390E00E94F31260E070E0A7
:102D900083E390E00E94F3126BED70E084E390E037
:102DA0000E94F31260E070E085E390E00E94F3126D
:102DB0006FEA70E086E390E00E94F31260E070E05A
:102DC00087E390E00E94F3126BED70E088E390E0FF
:102DD0000E94F31260E070E089E390E00E94F31239
:102DE00060E070E080E590E00E94F31268E078E037
:102DF00081E590E00E94F3126AE078E082E590E0DD
:102E00000E94F3126AE070E083E590E00E94F31202
:102E100068E07AE084E590E00E94F31268E078E0F0
:102E200085E590E00E94F31260E070E086E590E0B6
:102E30000E94F31260E07AE087E590E00E94F312CE
:102E400060E177E088E590E00E94F31260E177E0CE
:102E500089E590E00E94F31262E170E087E090E083
:102E60000E94F3120E94D7129FEF20E782E0915058
:102E700020408040E1F700C000000E94D31267E1CB
:102E800070E187E090E00E94F3120E94D71280E088
:102E90000E94C31380E090E00E94A2150E94531488
:102EA00060E070E080E792E10E94A71508952F92FC
:102EB0003F924F925F926F927F928F929F92AF92CA
:102EC000BF92CF92DF92EF92FF920F931F93CF9317
:102ED000DF935C016B01422E332EEEEAF2E022809A
:102EE0008681289EC001112401962481421B51092C
:102EF000849F7001859FF00C949FF00C1124C701F2
:102F000004962781211107C0E091AE02F091AF0233
:102F1000E80FF91F249025E0E20EF11C0E94D31265
:102F2000822C912CA4014A0D5B1D4F5F5F4F809155
:102F3000B9029091BA024817590788F48091B102FA
:102F40009601280F311DC90101972091BB023091D4
:102F5000BC028217930730F000E010E005C000E0EB
:102F600010E002C001E010E00115110559F0809158
:102F7000B1029601280F311D21503109B601C5015A
:102F80000E944C13512C63C0251441F0E091AE0215
:102F9000F091AF02EE0DFF1D749001C0712C3FEF58
:102FA000E31AF30AC0E046C08091B102D81708F0D6
:102FB00044C001151105B9F02C2F30E02150310922
:102FC000872D90E002C0959587952A95E2F780FDC0
:102FD00005C08091B7029091B80202C0842D932D54
:102FE0000E94E71225C02C2F30E021503109872D97
:102FF00090E002C0959587952A95E2F780FD05C07F
:103000004091B7025091B80202C0442D532D662D55
:1030100070E0660F771F660F771F660F771F6C0DC6
:103020007D1D6C0F711DC501850D911D0E947C14C5
:10303000DF5FCF5FC83008F4B7CF639402C0612C64
:10304000D0E08091B402681608F49ECF5394251402
:10305000B0F70E94D7120E940214C401DF91CF91F1
:103060001F910F91FF90EF90DF90CF90BF90AF90A6
:103070009F908F907F906F905F904F903F902F9098
:1030800008958F929F92AF92BF92CF92DF92EF926C
:10309000FF920F931F93CF937C014B015A0169015B
:1030A000C0E00EC0F501EC0FF11D408150E0980129
:1030B000B401C7010E9457170196E80EF91ECF5FB1
:1030C0008C2F90E08C159D056CF3C701CF911F915B
:1030D0000F91FF90EF90DF90CF90BF90AF909F90B7
:1030E0008F900895E1E6F0E080E8808310820E94EE
:1030F000AC180E94FF0A0E94D1150E94B9110E94CB
:10310000840F0E94A911FBCF9091C00095FFFCCFC6
:103110008093C60008951F93CF93DF93EC0110E0D6
:1031200007C0FE01E80FF91F80810E9484181F5F0D
:10313000812F90E0FE0101900020E9F73197EC1B10
:10314000FD0B31968E179F0760F38DE00E94841867
:10315000DF91CF911F9108951092C50087E680936B
:10316000C40086E08093C20088E18093C1008FE6AE
:1031700092E00E948B180895AA1BBB1B51E107C067
:10318000AA1FBB1FA617B70710F0A61BB70B881FF7
:10319000991F5A95A9F780959095BC01CD01089586
:1031A00097FB072E16F4009407D077FD09D00E94F4
:1031B000BC1807FC05D03EF4909581959F4F08956B
:1031C000709561957F4F08958F929F92AF92BF92B5
:1031D000CF92DF92EF92FF92CF93DF93EC01688161
:1031E00079818A819B81611571058105910521F4A1
:1031F00064E279ED8BE597E02DE133EF41E050E0BB
:103200000E94401949015A019B01AC01A7EAB1E4AF
:103210000E945F196B017C01ACEEB4EFA501940133
:103220000E946D19DC01CB018C0D9D1DAE1DBF1DD3
:10323000B7FF03C00197A109B04888839983AA8387
:10324000BB839F77DF91CF91FF90EF90DF90CF907E
:10325000BF90AF909F908F9008950E94E4180895BA
:1032600080E091E00E94E4180895A0E0B0E080932F
:10327000000190930101A0930201B093030108950E
:10328000052E97FB1EF400940E94571957FD07D096
:103290000E94721907FC03D04EF40C9457195095F4
:1032A0004095309521953F4F4F4F5F4F0895909532
:1032B0008095709561957F4F8F4F9F4F08950E9425
:1032C0009419A59F900DB49F900DA49F800D911D02
:1032D00011240895B7FF0C945F190E945F19821B97
:1032E000930B0895A1E21A2EAA1BBB1BFD010DC072
:1032F000AA1FBB1FEE1FFF1FA217B307E407F507A6
:1033000020F0A21BB30BE40BF50B661F771F881F81
:10331000991F1A9469F760957095809590959B0117
:10332000AC01BD01CF010895A29FB001B39FC001C0
:10333000A39F700D811D1124911DB29F700D811DE1
:0A3340001124911D0895F894FFCFA9
:10334A000100000047414D45204F46204C49464563
:10335A000041544D45474133323850004B4559508E
:10336A00414420494E535452554354494F4E3A0012
:10337A005072657373202A20746F2073746172749B
:10338A000061206E657720776F726C6400507265F9
:10339A007373202320746F20636F6E74696E756572
:1033AA0000776F726C642066726F6D2045455052CB
:1033BA004F4D004372653A204C6169204E676F6336
:1033CA002044756E6700507265737320312D390081
:1033DA00746F2063686F6F73652063656C6C20641B
:1033EA00656E73697479006F6620796F75722072E1
:1033FA00616E646F6D20776F726C64004558414D41
:10340A00504C453A005072657373203220666F72D1
:10341A0020003230252063656C6C2064656E736908
:10342A007479005072657373203320666F722000BE
:10343A003330252063656C6C2064656E736974791A
:10344A00005072657373204420746F206578697424
:10345A000047454E45524154494E4700574F524C3A
:10346A004400506C6561736520776169742E2E2E55
:10347A0000434F4E54494E55494E4700486F6C64BD
:10348A00204320746F20746F67676C6520636F6CCC
:10349A006F7200486F6C64204420746F20657869ED
:1034AA007400455849542047414D452E2E2E00534D
:1034BA00657269616C20626567696E206174204279
:0E34CA006175647261746520393630302E00F1
:00000001FF
